{
  "_format": "hh-sol-artifact-1",
  "contractName": "Canary",
  "sourceName": "contracts/Canary.sol",
  "abi": [
    {
      "anonymous": false,
      "inputs": [
        {
          "indexed": false,
          "internalType": "address",
          "name": "recipient",
          "type": "address"
        },
        {
          "indexed": false,
          "internalType": "uint256",
          "name": "tweetId",
          "type": "uint256"
        }
      ],
      "name": "AddTweet",
      "type": "event"
    },
    {
      "anonymous": false,
      "inputs": [
        {
          "indexed": false,
          "internalType": "uint256",
          "name": "tweetId",
          "type": "uint256"
        },
        {
          "indexed": false,
          "internalType": "bool",
          "name": "isDeleted",
          "type": "bool"
        }
      ],
      "name": "DeleteTweet",
      "type": "event"
    },
    {
      "anonymous": false,
      "inputs": [
        {
          "indexed": false,
          "internalType": "address",
          "name": "enthusiast",
          "type": "address"
        },
        {
          "indexed": false,
          "internalType": "uint256",
          "name": "tweetId",
          "type": "uint256"
        }
      ],
      "name": "LikedTweet",
      "type": "event"
    },
    {
      "inputs": [
        {
          "internalType": "string",
          "name": "tweetText",
          "type": "string"
        }
      ],
      "name": "addTweet",
      "outputs": [],
      "stateMutability": "nonpayable",
      "type": "function"
    },
    {
      "inputs": [
        {
          "internalType": "uint256",
          "name": "tweetId",
          "type": "uint256"
        },
        {
          "internalType": "bool",
          "name": "isDeleted",
          "type": "bool"
        }
      ],
      "name": "deleteTweet",
      "outputs": [],
      "stateMutability": "nonpayable",
      "type": "function"
    },
    {
      "inputs": [],
      "name": "getAllTweets",
      "outputs": [
        {
          "components": [
            {
              "internalType": "uint256",
              "name": "id",
              "type": "uint256"
            },
            {
              "internalType": "address",
              "name": "owner",
              "type": "address"
            },
            {
              "internalType": "string",
              "name": "tweetText",
              "type": "string"
            },
            {
              "internalType": "bool",
              "name": "isDeleted",
              "type": "bool"
            },
            {
              "internalType": "uint32",
              "name": "likes",
              "type": "uint32"
            },
            {
              "internalType": "uint256",
              "name": "timestamp",
              "type": "uint256"
            }
          ],
          "internalType": "struct Canary.Tweet[]",
          "name": "",
          "type": "tuple[]"
        }
      ],
      "stateMutability": "view",
      "type": "function"
    },
    {
      "inputs": [],
      "name": "getMyLikes",
      "outputs": [
        {
          "components": [
            {
              "internalType": "uint256",
              "name": "id",
              "type": "uint256"
            },
            {
              "internalType": "address",
              "name": "owner",
              "type": "address"
            },
            {
              "internalType": "string",
              "name": "tweetText",
              "type": "string"
            },
            {
              "internalType": "bool",
              "name": "isDeleted",
              "type": "bool"
            },
            {
              "internalType": "uint32",
              "name": "likes",
              "type": "uint32"
            },
            {
              "internalType": "uint256",
              "name": "timestamp",
              "type": "uint256"
            }
          ],
          "internalType": "struct Canary.Tweet[]",
          "name": "",
          "type": "tuple[]"
        }
      ],
      "stateMutability": "view",
      "type": "function"
    },
    {
      "inputs": [],
      "name": "getMyTweets",
      "outputs": [
        {
          "components": [
            {
              "internalType": "uint256",
              "name": "id",
              "type": "uint256"
            },
            {
              "internalType": "address",
              "name": "owner",
              "type": "address"
            },
            {
              "internalType": "string",
              "name": "tweetText",
              "type": "string"
            },
            {
              "internalType": "bool",
              "name": "isDeleted",
              "type": "bool"
            },
            {
              "internalType": "uint32",
              "name": "likes",
              "type": "uint32"
            },
            {
              "internalType": "uint256",
              "name": "timestamp",
              "type": "uint256"
            }
          ],
          "internalType": "struct Canary.Tweet[]",
          "name": "",
          "type": "tuple[]"
        }
      ],
      "stateMutability": "view",
      "type": "function"
    },
    {
      "inputs": [
        {
          "internalType": "uint256",
          "name": "tweetId",
          "type": "uint256"
        }
      ],
      "name": "getTweet",
      "outputs": [
        {
          "components": [
            {
              "internalType": "uint256",
              "name": "id",
              "type": "uint256"
            },
            {
              "internalType": "address",
              "name": "owner",
              "type": "address"
            },
            {
              "internalType": "string",
              "name": "tweetText",
              "type": "string"
            },
            {
              "internalType": "bool",
              "name": "isDeleted",
              "type": "bool"
            },
            {
              "internalType": "uint32",
              "name": "likes",
              "type": "uint32"
            },
            {
              "internalType": "uint256",
              "name": "timestamp",
              "type": "uint256"
            }
          ],
          "internalType": "struct Canary.Tweet",
          "name": "",
          "type": "tuple"
        }
      ],
      "stateMutability": "view",
      "type": "function"
    },
    {
      "inputs": [
        {
          "internalType": "uint256",
          "name": "tweetId",
          "type": "uint256"
        }
      ],
      "name": "likeTweet",
      "outputs": [],
      "stateMutability": "nonpayable",
      "type": "function"
    }
  ],
  "bytecode": "0x608060405234801561001057600080fd5b50611a40806100206000396000f3fe608060405234801561001057600080fd5b506004361061007d5760003560e01c8063aefedbc21161005b578063aefedbc2146100d8578063c3ad5ecb146100f6578063ecf0a45d14610126578063f0312a37146101445761007d565b8063532561351461008257806359ee12bc146100a05780635ffc6ceb146100bc575b600080fd5b61008a610160565b6040516100979190611484565b60405180910390f35b6100ba60048036038101906100b591906115ef565b610471565b005b6100d660048036038101906100d19190611664565b610642565b005b6100e0610878565b6040516100ed9190611484565b60405180910390f35b610110600480360381019061010b9190611664565b610bf4565b60405161011d919061171a565b60405180910390f35b61012e610d6d565b60405161013b9190611484565b60405180910390f35b61015e60048036038101906101599190611768565b611034565b005b60606000808054905067ffffffffffffffff811115610182576101816114c4565b5b6040519080825280602002602001820160405280156101bb57816020015b6101a8611115565b8152602001906001900390816101a05790505b5090506000805b6000805490508110156103b75760001515600082815481106101e7576101e66117a8565b5b906000526020600020906005020160030160009054906101000a900460ff161515036103a45760008181548110610221576102206117a8565b5b90600052602060002090600502016040518060c0016040529081600082015481526020016001820160009054906101000a900473ffffffffffffffffffffffffffffffffffffffff1673ffffffffffffffffffffffffffffffffffffffff1673ffffffffffffffffffffffffffffffffffffffff1681526020016002820180546102aa90611806565b80601f01602080910402602001604051908101604052809291908181526020018280546102d690611806565b80156103235780601f106102f857610100808354040283529160200191610323565b820191906000526020600020905b81548152906001019060200180831161030657829003601f168201915b505050505081526020016003820160009054906101000a900460ff161515151581526020016003820160019054906101000a900463ffffffff1663ffffffff1663ffffffff16815260200160048201548152505083838151811061038a576103896117a8565b5b602002602001018190525081806103a090611866565b9250505b80806103af90611866565b9150506101c2565b5060008167ffffffffffffffff8111156103d4576103d36114c4565b5b60405190808252806020026020018201604052801561040d57816020015b6103fa611115565b8152602001906001900390816103f25790505b50905060005b828110156104675783818151811061042e5761042d6117a8565b5b6020026020010151828281518110610449576104486117a8565b5b6020026020010181905250808061045f90611866565b915050610413565b5080935050505090565b60008080549050905060006040518060c001604052808381526020013373ffffffffffffffffffffffffffffffffffffffff168152602001848152602001600015158152602001600063ffffffff1681526020014281525090806001815401808255809150506001900390600052602060002090600502016000909190919091506000820151816000015560208201518160010160006101000a81548173ffffffffffffffffffffffffffffffffffffffff021916908373ffffffffffffffffffffffffffffffffffffffff160217905550604082015181600201908051906020019061055f929190611169565b5060608201518160030160006101000a81548160ff02191690831515021790555060808201518160030160016101000a81548163ffffffff021916908363ffffffff16021790555060a082015181600401555050336001600083815260200190815260200160002060006101000a81548173ffffffffffffffffffffffffffffffffffffffff021916908373ffffffffffffffffffffffffffffffffffffffff1602179055507f8b2db9b424f26463510ef5b02c16f2465836b52081b51d2112ec76102053bdea33826040516106369291906118cc565b60405180910390a15050565b6000600260003373ffffffffffffffffffffffffffffffffffffffff1673ffffffffffffffffffffffffffffffffffffffff1681526020019081526020016000208054806020026020016040519081016040528092919081815260200182805480156106cd57602002820191906000526020600020905b8154815260200190600101908083116106b9575b5050505050905060005b815181101561074f57828282815181106106f4576106f36117a8565b5b60200260200101510361073c576040517f08c379a000000000000000000000000000000000000000000000000000000000815260040161073390611978565b60405180910390fd5b808061074790611866565b9150506106d7565b50600160008381548110610766576107656117a8565b5b906000526020600020906005020160030160019054906101000a900463ffffffff166107929190611998565b600083815481106107a6576107a56117a8565b5b906000526020600020906005020160030160016101000a81548163ffffffff021916908363ffffffff160217905550600260003373ffffffffffffffffffffffffffffffffffffffff1673ffffffffffffffffffffffffffffffffffffffff1681526020019081526020016000208290806001815401808255809150506001900390600052602060002001600090919091909150557f1ffec2de7aec77ae925915191e5f8085a9f3b06f2e4ecd5b30b8f0184c639296338360405161086c9291906118cc565b60405180910390a15050565b60606000808054905067ffffffffffffffff81111561089a576108996114c4565b5b6040519080825280602002602001820160405280156108d357816020015b6108c0611115565b8152602001906001900390816108b85790505b5090506000805b600080549050811015610b3a573373ffffffffffffffffffffffffffffffffffffffff166001600083815260200190815260200160002060009054906101000a900473ffffffffffffffffffffffffffffffffffffffff1673ffffffffffffffffffffffffffffffffffffffff1614801561098b57506000151560008281548110610968576109676117a8565b5b906000526020600020906005020160030160009054906101000a900460ff161515145b15610b2757600081815481106109a4576109a36117a8565b5b90600052602060002090600502016040518060c0016040529081600082015481526020016001820160009054906101000a900473ffffffffffffffffffffffffffffffffffffffff1673ffffffffffffffffffffffffffffffffffffffff1673ffffffffffffffffffffffffffffffffffffffff168152602001600282018054610a2d90611806565b80601f0160208091040260200160405190810160405280929190818152602001828054610a5990611806565b8015610aa65780601f10610a7b57610100808354040283529160200191610aa6565b820191906000526020600020905b815481529060010190602001808311610a8957829003601f168201915b505050505081526020016003820160009054906101000a900460ff161515151581526020016003820160019054906101000a900463ffffffff1663ffffffff1663ffffffff168152602001600482015481525050838381518110610b0d57610b0c6117a8565b5b60200260200101819052508180610b2390611866565b9250505b8080610b3290611866565b9150506108da565b5060008167ffffffffffffffff811115610b5757610b566114c4565b5b604051908082528060200260200182016040528015610b9057816020015b610b7d611115565b815260200190600190039081610b755790505b50905060005b82811015610bea57838181518110610bb157610bb06117a8565b5b6020026020010151828281518110610bcc57610bcb6117a8565b5b60200260200101819052508080610be290611866565b915050610b96565b5080935050505090565b610bfc611115565b60008281548110610c1057610c0f6117a8565b5b90600052602060002090600502016040518060c0016040529081600082015481526020016001820160009054906101000a900473ffffffffffffffffffffffffffffffffffffffff1673ffffffffffffffffffffffffffffffffffffffff1673ffffffffffffffffffffffffffffffffffffffff168152602001600282018054610c9990611806565b80601f0160208091040260200160405190810160405280929190818152602001828054610cc590611806565b8015610d125780601f10610ce757610100808354040283529160200191610d12565b820191906000526020600020905b815481529060010190602001808311610cf557829003601f168201915b505050505081526020016003820160009054906101000a900460ff161515151581526020016003820160019054906101000a900463ffffffff1663ffffffff1663ffffffff1681526020016004820154815250509050919050565b60606000600260003373ffffffffffffffffffffffffffffffffffffffff1673ffffffffffffffffffffffffffffffffffffffff168152602001908152602001600020805480602002602001604051908101604052809291908181526020018280548015610dfa57602002820191906000526020600020905b815481526020019060010190808311610de6575b505050505090506000815167ffffffffffffffff811115610e1e57610e1d6114c4565b5b604051908082528060200260200182016040528015610e5757816020015b610e44611115565b815260200190600190039081610e3c5790505b5090506000805b835181101561102a576000848281518110610e7c57610e7b6117a8565b5b602002602001015181548110610e9557610e946117a8565b5b90600052602060002090600502016040518060c0016040529081600082015481526020016001820160009054906101000a900473ffffffffffffffffffffffffffffffffffffffff1673ffffffffffffffffffffffffffffffffffffffff1673ffffffffffffffffffffffffffffffffffffffff168152602001600282018054610f1e90611806565b80601f0160208091040260200160405190810160405280929190818152602001828054610f4a90611806565b8015610f975780601f10610f6c57610100808354040283529160200191610f97565b820191906000526020600020905b815481529060010190602001808311610f7a57829003601f168201915b505050505081526020016003820160009054906101000a900460ff161515151581526020016003820160019054906101000a900463ffffffff1663ffffffff1663ffffffff168152602001600482015481525050838381518110610ffe57610ffd6117a8565b5b6020026020010181905250818061101490611866565b925050808061102290611866565b915050610e5e565b5081935050505090565b3373ffffffffffffffffffffffffffffffffffffffff166001600084815260200190815260200160002060009054906101000a900473ffffffffffffffffffffffffffffffffffffffff1673ffffffffffffffffffffffffffffffffffffffff16036111115780600083815481106110af576110ae6117a8565b5b906000526020600020906005020160030160006101000a81548160ff0219169083151502179055507f2430f837dd2fb40e08c064be9db3d0cf2a7a21f8fe716a2a41787dafc66a7e2a82826040516111089291906119e1565b60405180910390a15b5050565b6040518060c0016040528060008152602001600073ffffffffffffffffffffffffffffffffffffffff16815260200160608152602001600015158152602001600063ffffffff168152602001600081525090565b82805461117590611806565b90600052602060002090601f01602090048101928261119757600085556111de565b82601f106111b057805160ff19168380011785556111de565b828001600101855582156111de579182015b828111156111dd5782518255916020019190600101906111c2565b5b5090506111eb91906111ef565b5090565b5b808211156112085760008160009055506001016111f0565b5090565b600081519050919050565b600082825260208201905092915050565b6000819050602082019050919050565b6000819050919050565b61124b81611238565b82525050565b600073ffffffffffffffffffffffffffffffffffffffff82169050919050565b600061127c82611251565b9050919050565b61128c81611271565b82525050565b600081519050919050565b600082825260208201905092915050565b60005b838110156112cc5780820151818401526020810190506112b1565b838111156112db576000848401525b50505050565b6000601f19601f8301169050919050565b60006112fd82611292565b611307818561129d565b93506113178185602086016112ae565b611320816112e1565b840191505092915050565b60008115159050919050565b6113408161132b565b82525050565b600063ffffffff82169050919050565b61135f81611346565b82525050565b600060c08301600083015161137d6000860182611242565b5060208301516113906020860182611283565b50604083015184820360408601526113a882826112f2565b91505060608301516113bd6060860182611337565b5060808301516113d06080860182611356565b5060a08301516113e360a0860182611242565b508091505092915050565b60006113fa8383611365565b905092915050565b6000602082019050919050565b600061141a8261120c565b6114248185611217565b93508360208202850161143685611228565b8060005b85811015611472578484038952815161145385826113ee565b945061145e83611402565b925060208a0199505060018101905061143a565b50829750879550505050505092915050565b6000602082019050818103600083015261149e818461140f565b905092915050565b6000604051905090565b600080fd5b600080fd5b600080fd5b600080fd5b7f4e487b7100000000000000000000000000000000000000000000000000000000600052604160045260246000fd5b6114fc826112e1565b810181811067ffffffffffffffff8211171561151b5761151a6114c4565b5b80604052505050565b600061152e6114a6565b905061153a82826114f3565b919050565b600067ffffffffffffffff82111561155a576115596114c4565b5b611563826112e1565b9050602081019050919050565b82818337600083830152505050565b600061159261158d8461153f565b611524565b9050828152602081018484840111156115ae576115ad6114bf565b5b6115b9848285611570565b509392505050565b600082601f8301126115d6576115d56114ba565b5b81356115e684826020860161157f565b91505092915050565b600060208284031215611605576116046114b0565b5b600082013567ffffffffffffffff811115611623576116226114b5565b5b61162f848285016115c1565b91505092915050565b61164181611238565b811461164c57600080fd5b50565b60008135905061165e81611638565b92915050565b60006020828403121561167a576116796114b0565b5b60006116888482850161164f565b91505092915050565b600060c0830160008301516116a96000860182611242565b5060208301516116bc6020860182611283565b50604083015184820360408601526116d482826112f2565b91505060608301516116e96060860182611337565b5060808301516116fc6080860182611356565b5060a083015161170f60a0860182611242565b508091505092915050565b600060208201905081810360008301526117348184611691565b905092915050565b6117458161132b565b811461175057600080fd5b50565b6000813590506117628161173c565b92915050565b6000806040838503121561177f5761177e6114b0565b5b600061178d8582860161164f565b925050602061179e85828601611753565b9150509250929050565b7f4e487b7100000000000000000000000000000000000000000000000000000000600052603260045260246000fd5b7f4e487b7100000000000000000000000000000000000000000000000000000000600052602260045260246000fd5b6000600282049050600182168061181e57607f821691505b602082108103611831576118306117d7565b5b50919050565b7f4e487b7100000000000000000000000000000000000000000000000000000000600052601160045260246000fd5b600061187182611238565b91507fffffffffffffffffffffffffffffffffffffffffffffffffffffffffffffffff82036118a3576118a2611837565b5b600182019050919050565b6118b781611271565b82525050565b6118c681611238565b82525050565b60006040820190506118e160008301856118ae565b6118ee60208301846118bd565b9392505050565b600082825260208201905092915050565b7f596f75206861766520616c7265616479206c696b65642074686973207477656560008201527f7400000000000000000000000000000000000000000000000000000000000000602082015250565b60006119626021836118f5565b915061196d82611906565b604082019050919050565b6000602082019050818103600083015261199181611955565b9050919050565b60006119a382611346565b91506119ae83611346565b92508263ffffffff038211156119c7576119c6611837565b5b828201905092915050565b6119db8161132b565b82525050565b60006040820190506119f660008301856118bd565b611a0360208301846119d2565b939250505056fea2646970667358221220ffc5c10f00d013c09b2682214a4c9f03f760f4dab21674032d9eaa89b38611c864736f6c634300080d0033",
  "linkReferences": {},
  "deployedLinkReferences": {}
}