{
  "_format": "hh-sol-artifact-1",
  "contractName": "Counter",
  "sourceName": "contracts/Counter.sol",
  "abi": [
    {
      "inputs": [],
      "stateMutability": "nonpayable",
      "type": "constructor"
    },
    {
      "inputs": [],
      "name": "add",
      "outputs": [],
      "stateMutability": "nonpayable",
      "type": "function"
    },
    {
      "inputs": [],
      "name": "getTotal",
      "outputs": [
        {
          "internalType": "uint256",
          "name": "",
          "type": "uint256"
        }
      ],
      "stateMutability": "view",
      "type": "function"
    }
  ],
  "bytecode": "0x608060405234801561001057600080fd5b506100596040518060400160405280601281526020017f436f756e657220696e697469616c697a6564000000000000000000000000000081525061005e60201b6100ee1760201c565b6101e1565b6100fa81604051602401610072919061015f565b6040516020818303038152906040527f41304fac000000000000000000000000000000000000000000000000000000007bffffffffffffffffffffffffffffffffffffffffffffffffffffffff19166020820180517bffffffffffffffffffffffffffffffffffffffffffffffffffffffff83818316178352505050506100fd60201b60201c565b50565b60008151905060006a636f6e736f6c652e6c6f679050602083016000808483855afa5050505050565b600061013182610181565b61013b818561018c565b935061014b81856020860161019d565b610154816101d0565b840191505092915050565b600060208201905081810360008301526101798184610126565b905092915050565b600081519050919050565b600082825260208201905092915050565b60005b838110156101bb5780820151818401526020810190506101a0565b838111156101ca576000848401525b50505050565b6000601f19601f8301169050919050565b610566806101f06000396000f3fe608060405234801561001057600080fd5b50600436106100365760003560e01c80634f2be91f1461003b578063775a25e314610045575b600080fd5b610043610063565b005b61004d6100a3565b60405161005a91906103d2565b60405180910390f35b60016000808282546100759190610409565b925050819055506100a160405180606001604052806022815260200161050f6022913933600054610187565b565b60006100e66040518060400160405280601081526020017f54686520746f74616c2069732025642100000000000000000000000000000000815250600054610226565b600054905090565b610184816040516024016101029190610342565b6040516020818303038152906040527f41304fac000000000000000000000000000000000000000000000000000000007bffffffffffffffffffffffffffffffffffffffffffffffffffffffff19166020820180517bffffffffffffffffffffffffffffffffffffffffffffffffffffffff83818316178352505050506102c2565b50565b61022183838360405160240161019f93929190610364565b6040516020818303038152906040527f07c81217000000000000000000000000000000000000000000000000000000007bffffffffffffffffffffffffffffffffffffffffffffffffffffffff19166020820180517bffffffffffffffffffffffffffffffffffffffffffffffffffffffff83818316178352505050506102c2565b505050565b6102be828260405160240161023c9291906103a2565b6040516020818303038152906040527f9710a9d0000000000000000000000000000000000000000000000000000000007bffffffffffffffffffffffffffffffffffffffffffffffffffffffff19166020820180517bffffffffffffffffffffffffffffffffffffffffffffffffffffffff83818316178352505050506102c2565b5050565b60008151905060006a636f6e736f6c652e6c6f679050602083016000808483855afa5050505050565b6102f48161045f565b82525050565b6000610305826103ed565b61030f81856103f8565b935061031f81856020860161049b565b610328816104fd565b840191505092915050565b61033c81610491565b82525050565b6000602082019050818103600083015261035c81846102fa565b905092915050565b6000606082019050818103600083015261037e81866102fa565b905061038d60208301856102eb565b61039a6040830184610333565b949350505050565b600060408201905081810360008301526103bc81856102fa565b90506103cb6020830184610333565b9392505050565b60006020820190506103e76000830184610333565b92915050565b600081519050919050565b600082825260208201905092915050565b600061041482610491565b915061041f83610491565b9250827fffffffffffffffffffffffffffffffffffffffffffffffffffffffffffffffff03821115610454576104536104ce565b5b828201905092915050565b600061046a82610471565b9050919050565b600073ffffffffffffffffffffffffffffffffffffffff82169050919050565b6000819050919050565b60005b838110156104b957808201518184015260208101905061049e565b838111156104c8576000848401525b50505050565b7f4e487b7100000000000000000000000000000000000000000000000000000000600052601160045260246000fd5b6000601f19601f830116905091905056fe257320686173206164646564203120746865206e657720746f74616c206973202573a2646970667358221220cd321700f857813211095faef854f7e82e1d6cc2319c651813697236ef1e9a0264736f6c63430008000033",
  "linkReferences": {},
  "deployedLinkReferences": {}
}